:020000040800F2
:1000000000C0002001030008ED020008EF02000814
:10001000F1020008F3020008F502000800000000E9
:10002000000000000000000000000000F7020008CF
:10003000F902000800000000FB020008FD020008B1
:100040004903000849030008490300084903000860
:100050004903000849030008490300084903000850
:100060004903000849030008490300084903000840
:100070004903000849030008490300084903000830
:100080004903000849030008490300084903000820
:100090004903000849030008490300084903000810
:1000A0004903000849030008490300084903000800
:1000B00049030008490300084903000849030008F0
:1000C00049030008490300084903000849030008E0
:1000D00049030008490300084903000849030008D0
:1000E00049030008490300084903000849030008C0
:1000F00049030008490300084903000849030008B0
:10010000490300084903000849030008490300089F
:10011000490300084903000849030008490300088F
:10012000490300084903000849030008490300087F
:1001300010B5054C237833B9044B13B10448AFF321
:1001400000800123237010BD00000020000000008B
:100150009403000808B5034B1BB103490348AFF3F0
:10016000008008BD00000000040000209403000887
:10017000334A136843F48033136000230133304A59
:10018000126812F4003F03D14FF6FF729342F5D18B
:100190002B4B1B6813F4003F00D1FEE7284BDA69B4
:1001A00042F08052DA6127490A6842F440420A600C
:1001B0005A685A605A685A605A6842F480625A60B3
:1001C0005A6822F440325A605A6842F440325A6007
:1001D0005A6822F0904222F470125A605A6842F033
:1001E000036242F480225A601A6842F080721A60F8
:1001F000134B1B6813F0007FFAD0124A136843F4C4
:10020000803313600F4B5B6813F4803FFAD00D4AC4
:10021000136843F4003313600A4B5B6813F4003F28
:10022000FAD0074B5A6822F003025A605A6842F02B
:1002300002025A60024B5B6813F0080FFAD0704755
:10024000001002400070004008B5FFF791FF08BDA4
:1002500000B583B0234AD2F8883043F47003C2F863
:100260008830214A136843F0010313601E4B1B685A
:1002700013F0020FFAD01C4A536843F08003536016
:100280000023019302E0019B01330193019B4F2B5B
:10029000F9D9154A536843F0900353600023019342
:1002A00002E0019B01330193019B4F2BF9D90E4BC7
:1002B0005A6822F003025A601A6822F0847222F40B
:1002C00080321A604FF41F029A601A6822F480226A
:1002D0001A6000225A60DA62FFF7B6FF03B05DF8D9
:1002E00004FB00BF00ED00E0001002407047FEE795
:1002F000FEE7FEE7FEE77047704770477047FEE78E
:10030000002103E00B4B5B58435004310A480B4B70
:1003100042189A42F6D30A4A02E0002342F8043B0C
:10032000084B9A42F9D3FFF793FF00F00FF8FFF75D
:10033000E6FF7047B4030008000000200000002022
:10034000000000201C000020FEE7000070B50D4DED
:100350000D4C641BA4100026A64209D10B4D0C4C79
:1003600000F018F8641BA4100026A64205D170BD49
:1003700055F8043B98470136EEE755F8043B98479B
:100380000136F2E7AC030008AC030008AC03000838
:10039000B0030008F8B500BFF8BC08BC9E46704723
:0C03A000F8B500BFF8BC08BC9E467047D2
:0403AC0055010008EF
:0403B000310100080F
:0400000508000301EB
:00000001FF
